{
  "_format": "hh-sol-artifact-1",
  "contractName": "Raffle",
  "sourceName": "contracts/Raffle.sol",
  "abi": [
    {
      "inputs": [
        {
          "internalType": "address",
          "name": "vrfCoordinatorV2",
          "type": "address"
        },
        {
          "internalType": "uint256",
          "name": "entranceFee",
          "type": "uint256"
        },
        {
          "internalType": "bytes32",
          "name": "gasLane",
          "type": "bytes32"
        },
        {
          "internalType": "uint256",
          "name": "subscriptionId",
          "type": "uint256"
        },
        {
          "internalType": "uint32",
          "name": "callbackGasLimit",
          "type": "uint32"
        }
      ],
      "stateMutability": "nonpayable",
      "type": "constructor"
    },
    {
      "inputs": [
        {
          "internalType": "address",
          "name": "have",
          "type": "address"
        },
        {
          "internalType": "address",
          "name": "want",
          "type": "address"
        }
      ],
      "name": "OnlyCoordinatorCanFulfill",
      "type": "error"
    },
    {
      "inputs": [
        {
          "internalType": "address",
          "name": "have",
          "type": "address"
        },
        {
          "internalType": "address",
          "name": "owner",
          "type": "address"
        },
        {
          "internalType": "address",
          "name": "coordinator",
          "type": "address"
        }
      ],
      "name": "OnlyOwnerOrCoordinator",
      "type": "error"
    },
    {
      "inputs": [
        {
          "internalType": "uint256",
          "name": "amountEntered",
          "type": "uint256"
        },
        {
          "internalType": "uint256",
          "name": "entranceFee",
          "type": "uint256"
        }
      ],
      "name": "Raffle__NotEnoughETHEntered",
      "type": "error"
    },
    {
      "inputs": [],
      "name": "Raffle__TransferFailed",
      "type": "error"
    },
    {
      "inputs": [],
      "name": "ZeroAddress",
      "type": "error"
    },
    {
      "anonymous": false,
      "inputs": [
        {
          "indexed": false,
          "internalType": "address",
          "name": "vrfCoordinator",
          "type": "address"
        }
      ],
      "name": "CoordinatorSet",
      "type": "event"
    },
    {
      "anonymous": false,
      "inputs": [
        {
          "indexed": true,
          "internalType": "address",
          "name": "from",
          "type": "address"
        },
        {
          "indexed": true,
          "internalType": "address",
          "name": "to",
          "type": "address"
        }
      ],
      "name": "OwnershipTransferRequested",
      "type": "event"
    },
    {
      "anonymous": false,
      "inputs": [
        {
          "indexed": true,
          "internalType": "address",
          "name": "from",
          "type": "address"
        },
        {
          "indexed": true,
          "internalType": "address",
          "name": "to",
          "type": "address"
        }
      ],
      "name": "OwnershipTransferred",
      "type": "event"
    },
    {
      "anonymous": false,
      "inputs": [
        {
          "indexed": true,
          "internalType": "address",
          "name": "player",
          "type": "address"
        }
      ],
      "name": "RaffleEnter",
      "type": "event"
    },
    {
      "anonymous": false,
      "inputs": [
        {
          "indexed": false,
          "internalType": "uint256",
          "name": "requestId",
          "type": "uint256"
        },
        {
          "indexed": false,
          "internalType": "uint256[]",
          "name": "randomWords",
          "type": "uint256[]"
        }
      ],
      "name": "RequestFulfilled",
      "type": "event"
    },
    {
      "anonymous": false,
      "inputs": [
        {
          "indexed": false,
          "internalType": "uint256",
          "name": "requestId",
          "type": "uint256"
        },
        {
          "indexed": false,
          "internalType": "uint32",
          "name": "numWords",
          "type": "uint32"
        }
      ],
      "name": "RequestSent",
      "type": "event"
    },
    {
      "anonymous": false,
      "inputs": [
        {
          "indexed": true,
          "internalType": "uint256",
          "name": "requestId",
          "type": "uint256"
        }
      ],
      "name": "RequestedRaffleWinner",
      "type": "event"
    },
    {
      "anonymous": false,
      "inputs": [
        {
          "indexed": true,
          "internalType": "address",
          "name": "winner",
          "type": "address"
        }
      ],
      "name": "WinnerPicked",
      "type": "event"
    },
    {
      "inputs": [],
      "name": "acceptOwnership",
      "outputs": [],
      "stateMutability": "nonpayable",
      "type": "function"
    },
    {
      "inputs": [],
      "name": "enterRaffle",
      "outputs": [],
      "stateMutability": "payable",
      "type": "function"
    },
    {
      "inputs": [],
      "name": "getEntranceFee",
      "outputs": [
        {
          "internalType": "uint256",
          "name": "",
          "type": "uint256"
        }
      ],
      "stateMutability": "view",
      "type": "function"
    },
    {
      "inputs": [
        {
          "internalType": "uint256",
          "name": "index",
          "type": "uint256"
        }
      ],
      "name": "getPlayer",
      "outputs": [
        {
          "internalType": "address payable",
          "name": "",
          "type": "address"
        }
      ],
      "stateMutability": "view",
      "type": "function"
    },
    {
      "inputs": [],
      "name": "getRecentWinner",
      "outputs": [
        {
          "internalType": "address",
          "name": "",
          "type": "address"
        }
      ],
      "stateMutability": "view",
      "type": "function"
    },
    {
      "inputs": [],
      "name": "lastRequestId",
      "outputs": [
        {
          "internalType": "uint256",
          "name": "",
          "type": "uint256"
        }
      ],
      "stateMutability": "view",
      "type": "function"
    },
    {
      "inputs": [],
      "name": "owner",
      "outputs": [
        {
          "internalType": "address",
          "name": "",
          "type": "address"
        }
      ],
      "stateMutability": "view",
      "type": "function"
    },
    {
      "inputs": [
        {
          "internalType": "uint256",
          "name": "requestId",
          "type": "uint256"
        },
        {
          "internalType": "uint256[]",
          "name": "randomWords",
          "type": "uint256[]"
        }
      ],
      "name": "rawFulfillRandomWords",
      "outputs": [],
      "stateMutability": "nonpayable",
      "type": "function"
    },
    {
      "inputs": [
        {
          "internalType": "uint256",
          "name": "",
          "type": "uint256"
        }
      ],
      "name": "requestIds",
      "outputs": [
        {
          "internalType": "uint256",
          "name": "",
          "type": "uint256"
        }
      ],
      "stateMutability": "view",
      "type": "function"
    },
    {
      "inputs": [
        {
          "internalType": "bool",
          "name": "enableNativePayment",
          "type": "bool"
        }
      ],
      "name": "requestRandomWinner",
      "outputs": [
        {
          "internalType": "uint256",
          "name": "requestId",
          "type": "uint256"
        }
      ],
      "stateMutability": "nonpayable",
      "type": "function"
    },
    {
      "inputs": [
        {
          "internalType": "uint256",
          "name": "",
          "type": "uint256"
        }
      ],
      "name": "s_requests",
      "outputs": [
        {
          "internalType": "bool",
          "name": "fulfilled",
          "type": "bool"
        },
        {
          "internalType": "bool",
          "name": "exists",
          "type": "bool"
        }
      ],
      "stateMutability": "view",
      "type": "function"
    },
    {
      "inputs": [],
      "name": "s_vrfCoordinator",
      "outputs": [
        {
          "internalType": "contract IVRFCoordinatorV2Plus",
          "name": "",
          "type": "address"
        }
      ],
      "stateMutability": "view",
      "type": "function"
    },
    {
      "inputs": [
        {
          "internalType": "address",
          "name": "_vrfCoordinator",
          "type": "address"
        }
      ],
      "name": "setCoordinator",
      "outputs": [],
      "stateMutability": "nonpayable",
      "type": "function"
    },
    {
      "inputs": [
        {
          "internalType": "address",
          "name": "to",
          "type": "address"
        }
      ],
      "name": "transferOwnership",
      "outputs": [],
      "stateMutability": "nonpayable",
      "type": "function"
    }
  ],
  "bytecode": "0x6101006040523480156200001257600080fd5b5060405162002099380380620020998339818101604052810190620000389190620003a9565b84338060008073ffffffffffffffffffffffffffffffffffffffff168273ffffffffffffffffffffffffffffffffffffffff161415620000af576040517f08c379a0000000000000000000000000000000000000000000000000000000008152600401620000a6906200047f565b60405180910390fd5b816000806101000a81548173ffffffffffffffffffffffffffffffffffffffff021916908373ffffffffffffffffffffffffffffffffffffffff160217905550600073ffffffffffffffffffffffffffffffffffffffff168173ffffffffffffffffffffffffffffffffffffffff1614620001365762000135816200021d60201b60201c565b5b505050600073ffffffffffffffffffffffffffffffffffffffff168173ffffffffffffffffffffffffffffffffffffffff161415620001a1576040517fd92e233d00000000000000000000000000000000000000000000000000000000815260040160405180910390fd5b80600260006101000a81548173ffffffffffffffffffffffffffffffffffffffff021916908373ffffffffffffffffffffffffffffffffffffffff1602179055505083608081815250508260c081815250508160a081815250508063ffffffff1660e08163ffffffff1660e01b815250505050505050620005eb565b3373ffffffffffffffffffffffffffffffffffffffff168173ffffffffffffffffffffffffffffffffffffffff1614156200028f576040517f08c379a00000000000000000000000000000000000000000000000000000000081526004016200028690620004a1565b60405180910390fd5b80600160006101000a81548173ffffffffffffffffffffffffffffffffffffffff021916908373ffffffffffffffffffffffffffffffffffffffff1602179055508073ffffffffffffffffffffffffffffffffffffffff1660008054906101000a900473ffffffffffffffffffffffffffffffffffffffff1673ffffffffffffffffffffffffffffffffffffffff167fed8889f560326eb138920d842192f0eb3dd22b4f139c87a2c57538e05bae127860405160405180910390a350565b6000815190506200035e8162000583565b92915050565b60008151905062000375816200059d565b92915050565b6000815190506200038c81620005b7565b92915050565b600081519050620003a381620005d1565b92915050565b600080600080600060a08688031215620003c857620003c76200052c565b5b6000620003d8888289016200034d565b9550506020620003eb888289016200037b565b9450506040620003fe8882890162000364565b935050606062000411888289016200037b565b9250506080620004248882890162000392565b9150509295509295909350565b600062000440601883620004c3565b91506200044d8262000531565b602082019050919050565b600062000467601783620004c3565b915062000474826200055a565b602082019050919050565b600060208201905081810360008301526200049a8162000431565b9050919050565b60006020820190508181036000830152620004bc8162000458565b9050919050565b600082825260208201905092915050565b6000620004e182620004f2565b9050919050565b6000819050919050565b600073ffffffffffffffffffffffffffffffffffffffff82169050919050565b6000819050919050565b600063ffffffff82169050919050565b600080fd5b7f43616e6e6f7420736574206f776e657220746f207a65726f0000000000000000600082015250565b7f43616e6e6f74207472616e7366657220746f2073656c66000000000000000000600082015250565b6200058e81620004d4565b81146200059a57600080fd5b50565b620005a881620004e8565b8114620005b457600080fd5b50565b620005c28162000512565b8114620005ce57600080fd5b50565b620005dc816200051c565b8114620005e857600080fd5b50565b60805160a05160c05160e05160e01c611a636200063660003960006109f9015260006109a2015260006109c801526000818161034e0152818161043a01526104630152611a636000f3fe6080604052600436106100dd5760003560e01c80638ea981171161007f578063a168fa8911610059578063a168fa891461027b578063e55ae4e8146102b9578063f2fde38b146102f6578063fc2a88c31461031f576100dd565b80638ea98117146101ea5780639d52d89d146102135780639eccacf614610250576100dd565b8063473f1ddc116100bb578063473f1ddc1461014057806379ba50971461016b5780638796ba8c146101825780638da5cb5b146101bf576100dd565b806309bc33a7146100e25780631fe543e31461010d5780632cfcc53914610136575b600080fd5b3480156100ee57600080fd5b506100f761034a565b60405161010491906116f2565b60405180910390f35b34801561011957600080fd5b50610134600480360381019061012f91906112f7565b610372565b005b61013e610438565b005b34801561014c57600080fd5b50610155610567565b604051610162919061157b565b60405180910390f35b34801561017757600080fd5b50610180610591565b005b34801561018e57600080fd5b506101a960048036038101906101a4919061129d565b610726565b6040516101b691906116f2565b60405180910390f35b3480156101cb57600080fd5b506101d461074a565b6040516101e1919061157b565b60405180910390f35b3480156101f657600080fd5b50610211600480360381019061020c9190611243565b610773565b005b34801561021f57600080fd5b5061023a60048036038101906102359190611270565b610955565b60405161024791906116f2565b60405180910390f35b34801561025c57600080fd5b50610265610c35565b604051610272919061163a565b60405180910390f35b34801561028757600080fd5b506102a2600480360381019061029d919061129d565b610c5b565b6040516102b0929190611611565b60405180910390f35b3480156102c557600080fd5b506102e060048036038101906102db919061129d565b610c99565b6040516102ed9190611596565b60405180910390f35b34801561030257600080fd5b5061031d60048036038101906103189190611243565b610ce1565b005b34801561032b57600080fd5b50610334610cf5565b60405161034191906116f2565b60405180910390f35b60007f0000000000000000000000000000000000000000000000000000000000000000905090565b600260009054906101000a900473ffffffffffffffffffffffffffffffffffffffff1673ffffffffffffffffffffffffffffffffffffffff163373ffffffffffffffffffffffffffffffffffffffff16146104285733600260009054906101000a900473ffffffffffffffffffffffffffffffffffffffff166040517f1cf993f400000000000000000000000000000000000000000000000000000000815260040161041f9291906115b1565b60405180910390fd5b610433838383610cfb565b505050565b7f00000000000000000000000000000000000000000000000000000000000000003410156104bf57347f00000000000000000000000000000000000000000000000000000000000000006040517f01d9716a0000000000000000000000000000000000000000000000000000000081526004016104b692919061170d565b60405180910390fd5b6007339080600181540180825580915050600190039060005260206000200160009091909190916101000a81548173ffffffffffffffffffffffffffffffffffffffff021916908373ffffffffffffffffffffffffffffffffffffffff1602179055503373ffffffffffffffffffffffffffffffffffffffff167f0805e1d667bddb8a95f0f09880cf94f403fb596ce79928d9f29b74203ba284d460405160405180910390a2565b6000600360009054906101000a900473ffffffffffffffffffffffffffffffffffffffff16905090565b600160009054906101000a900473ffffffffffffffffffffffffffffffffffffffff1673ffffffffffffffffffffffffffffffffffffffff163373ffffffffffffffffffffffffffffffffffffffff1614610621576040517f08c379a000000000000000000000000000000000000000000000000000000000815260040161061890611655565b60405180910390fd5b60008060009054906101000a900473ffffffffffffffffffffffffffffffffffffffff169050336000806101000a81548173ffffffffffffffffffffffffffffffffffffffff021916908373ffffffffffffffffffffffffffffffffffffffff1602179055506000600160006101000a81548173ffffffffffffffffffffffffffffffffffffffff021916908373ffffffffffffffffffffffffffffffffffffffff1602179055503373ffffffffffffffffffffffffffffffffffffffff168173ffffffffffffffffffffffffffffffffffffffff167f8be0079c531659141344cd1fd0a4f28419497f9722a3daafe3b4186f6b6457e060405160405180910390a350565b6005818154811061073657600080fd5b906000526020600020016000915090505481565b60008060009054906101000a900473ffffffffffffffffffffffffffffffffffffffff16905090565b61077b61074a565b73ffffffffffffffffffffffffffffffffffffffff163373ffffffffffffffffffffffffffffffffffffffff16141580156108045750600260009054906101000a900473ffffffffffffffffffffffffffffffffffffffff1673ffffffffffffffffffffffffffffffffffffffff163373ffffffffffffffffffffffffffffffffffffffff1614155b15610873573361081261074a565b600260009054906101000a900473ffffffffffffffffffffffffffffffffffffffff166040517f061db9c100000000000000000000000000000000000000000000000000000000815260040161086a939291906115da565b60405180910390fd5b600073ffffffffffffffffffffffffffffffffffffffff168173ffffffffffffffffffffffffffffffffffffffff1614156108da576040517fd92e233d00000000000000000000000000000000000000000000000000000000815260040160405180910390fd5b80600260006101000a81548173ffffffffffffffffffffffffffffffffffffffff021916908373ffffffffffffffffffffffffffffffffffffffff1602179055507fd1a6a14209a385a964d036e404cb5cfb71f4000cdb03c9366292430787261be68160405161094a919061157b565b60405180910390a150565b6000600260009054906101000a900473ffffffffffffffffffffffffffffffffffffffff1673ffffffffffffffffffffffffffffffffffffffff16639b1c385e6040518060c001604052807f000000000000000000000000000000000000000000000000000000000000000081526020017f00000000000000000000000000000000000000000000000000000000000000008152602001600361ffff1681526020017f000000000000000000000000000000000000000000000000000000000000000063ffffffff168152602001600263ffffffff168152602001610a496040518060200160405280881515815250610eda565b8152506040518263ffffffff1660e01b8152600401610a6891906116d0565b602060405180830381600087803b158015610a8257600080fd5b505af1158015610a96573d6000803e3d6000fd5b505050506040513d601f19601f82011682018060405250810190610aba91906112ca565b90506040518060600160405280600015158152602001600115158152602001600067ffffffffffffffff811115610af457610af3611911565b5b604051908082528060200260200182016040528015610b225781602001602082028036833780820191505090505b508152506004600083815260200190815260200160002060008201518160000160006101000a81548160ff02191690831515021790555060208201518160000160016101000a81548160ff0219169083151502179055506040820151816001019080519060200190610b9592919061112f565b509050506005819080600181540180825580915050600190039060005260206000200160009091909190915055806006819055507fcc58b13ad3eab50626c6a6300b1d139cd6ebb1688a7cced9461c2f7e762665ee816002604051610bfb929190611736565b60405180910390a1807fcd6e45c8998311cab7e9d4385596cac867e20a0587194b954fa3a731c93ce78b60405160405180910390a2919050565b600260009054906101000a900473ffffffffffffffffffffffffffffffffffffffff1681565b60046020528060005260406000206000915090508060000160009054906101000a900460ff16908060000160019054906101000a900460ff16905082565b600060078281548110610caf57610cae6118e2565b5b9060005260206000200160009054906101000a900473ffffffffffffffffffffffffffffffffffffffff169050919050565b610ce9610f72565b610cf281611002565b50565b60065481565b600060078054905083836000818110610d1757610d166118e2565b5b90506020020135610d289190611882565b905060078181548110610d3e57610d3d6118e2565b5b9060005260206000200160009054906101000a900473ffffffffffffffffffffffffffffffffffffffff16600360006101000a81548173ffffffffffffffffffffffffffffffffffffffff021916908373ffffffffffffffffffffffffffffffffffffffff1602179055506000600360009054906101000a900473ffffffffffffffffffffffffffffffffffffffff1673ffffffffffffffffffffffffffffffffffffffff1647604051610df190611566565b60006040518083038185875af1925050503d8060008114610e2e576040519150601f19603f3d011682016040523d82523d6000602084013e610e33565b606091505b5050905080610e6e576040517fa1d04b3900000000000000000000000000000000000000000000000000000000815260040160405180910390fd5b600360009054906101000a900473ffffffffffffffffffffffffffffffffffffffff1673ffffffffffffffffffffffffffffffffffffffff167f5b690ec4a06fe979403046eaeea5b3ce38524683c3001f662c8b5a829632f7df60405160405180910390a25050505050565b60607f92fd13387c7fe7befbc38d303d6468778fb9731bc4583f17d92989c6fcfdeaaa82604051602401610f0e91906116b5565b604051602081830303815290604052907bffffffffffffffffffffffffffffffffffffffffffffffffffffffff19166020820180517bffffffffffffffffffffffffffffffffffffffffffffffffffffffff83818316178352505050509050919050565b60008054906101000a900473ffffffffffffffffffffffffffffffffffffffff1673ffffffffffffffffffffffffffffffffffffffff163373ffffffffffffffffffffffffffffffffffffffff1614611000576040517f08c379a0000000000000000000000000000000000000000000000000000000008152600401610ff790611675565b60405180910390fd5b565b3373ffffffffffffffffffffffffffffffffffffffff168173ffffffffffffffffffffffffffffffffffffffff161415611071576040517f08c379a000000000000000000000000000000000000000000000000000000000815260040161106890611695565b60405180910390fd5b80600160006101000a81548173ffffffffffffffffffffffffffffffffffffffff021916908373ffffffffffffffffffffffffffffffffffffffff1602179055508073ffffffffffffffffffffffffffffffffffffffff1660008054906101000a900473ffffffffffffffffffffffffffffffffffffffff1673ffffffffffffffffffffffffffffffffffffffff167fed8889f560326eb138920d842192f0eb3dd22b4f139c87a2c57538e05bae127860405160405180910390a350565b82805482825590600052602060002090810192821561116b579160200282015b8281111561116a57825182559160200191906001019061114f565b5b509050611178919061117c565b5090565b5b8082111561119557600081600090555060010161117d565b5090565b6000813590506111a8816119e8565b92915050565b60008083601f8401126111c4576111c3611945565b5b8235905067ffffffffffffffff8111156111e1576111e0611940565b5b6020830191508360208202830111156111fd576111fc61194a565b5b9250929050565b600081359050611213816119ff565b92915050565b60008135905061122881611a16565b92915050565b60008151905061123d81611a16565b92915050565b60006020828403121561125957611258611954565b5b600061126784828501611199565b91505092915050565b60006020828403121561128657611285611954565b5b600061129484828501611204565b91505092915050565b6000602082840312156112b3576112b2611954565b5b60006112c184828501611219565b91505092915050565b6000602082840312156112e0576112df611954565b5b60006112ee8482850161122e565b91505092915050565b6000806000604084860312156113105761130f611954565b5b600061131e86828701611219565b935050602084013567ffffffffffffffff81111561133f5761133e61194f565b5b61134b868287016111ae565b92509250509250925092565b611360816117a9565b82525050565b61136f81611797565b82525050565b61137e816117bb565b82525050565b61138d816117bb565b82525050565b61139c816117c7565b82525050565b60006113ad8261175f565b6113b7818561176a565b93506113c781856020860161184f565b6113d081611959565b840191505092915050565b6113e481611819565b82525050565b60006113f7601683611786565b91506114028261196a565b602082019050919050565b600061141a601683611786565b915061142582611993565b602082019050919050565b600061143d60008361177b565b9150611448826119bc565b600082019050919050565b6000611460601783611786565b915061146b826119bf565b602082019050919050565b60208201600082015161148c6000850182611375565b50505050565b600060c0830160008301516114aa6000860182611393565b5060208301516114bd602086018261152a565b5060408301516114d0604086018261151b565b5060608301516114e36060860182611548565b5060808301516114f66080860182611548565b5060a083015184820360a086015261150e82826113a2565b9150508091505092915050565b611524816117d1565b82525050565b611533816117ff565b82525050565b611542816117ff565b82525050565b61155181611809565b82525050565b61156081611809565b82525050565b600061157182611430565b9150819050919050565b60006020820190506115906000830184611366565b92915050565b60006020820190506115ab6000830184611357565b92915050565b60006040820190506115c66000830185611366565b6115d36020830184611366565b9392505050565b60006060820190506115ef6000830186611366565b6115fc6020830185611366565b6116096040830184611366565b949350505050565b60006040820190506116266000830185611384565b6116336020830184611384565b9392505050565b600060208201905061164f60008301846113db565b92915050565b6000602082019050818103600083015261166e816113ea565b9050919050565b6000602082019050818103600083015261168e8161140d565b9050919050565b600060208201905081810360008301526116ae81611453565b9050919050565b60006020820190506116ca6000830184611476565b92915050565b600060208201905081810360008301526116ea8184611492565b905092915050565b60006020820190506117076000830184611539565b92915050565b60006040820190506117226000830185611539565b61172f6020830184611539565b9392505050565b600060408201905061174b6000830185611539565b6117586020830184611557565b9392505050565b600081519050919050565b600082825260208201905092915050565b600081905092915050565b600082825260208201905092915050565b60006117a2826117df565b9050919050565b60006117b4826117df565b9050919050565b60008115159050919050565b6000819050919050565b600061ffff82169050919050565b600073ffffffffffffffffffffffffffffffffffffffff82169050919050565b6000819050919050565b600063ffffffff82169050919050565b60006118248261182b565b9050919050565b60006118368261183d565b9050919050565b6000611848826117df565b9050919050565b60005b8381101561186d578082015181840152602081019050611852565b8381111561187c576000848401525b50505050565b600061188d826117ff565b9150611898836117ff565b9250826118a8576118a76118b3565b5b828206905092915050565b7f4e487b7100000000000000000000000000000000000000000000000000000000600052601260045260246000fd5b7f4e487b7100000000000000000000000000000000000000000000000000000000600052603260045260246000fd5b7f4e487b7100000000000000000000000000000000000000000000000000000000600052604160045260246000fd5b600080fd5b600080fd5b600080fd5b600080fd5b600080fd5b6000601f19601f8301169050919050565b7f4d7573742062652070726f706f736564206f776e657200000000000000000000600082015250565b7f4f6e6c792063616c6c61626c65206279206f776e657200000000000000000000600082015250565b50565b7f43616e6e6f74207472616e7366657220746f2073656c66000000000000000000600082015250565b6119f181611797565b81146119fc57600080fd5b50565b611a08816117bb565b8114611a1357600080fd5b50565b611a1f816117ff565b8114611a2a57600080fd5b5056fea2646970667358221220d9b76fbefe303e107627f4c46496e0f1409a50fb94dfaf697f49ea98750656bb64736f6c63430008070033",
  "linkReferences": {},
  "deployedLinkReferences": {}
}